{
  "_format": "hh-sol-artifact-1",
  "contractName": "MyEpicNFT",
  "sourceName": "contracts/MyEpicNFT.sol",
  "abi": [
    {
      "inputs": [],
      "stateMutability": "nonpayable",
      "type": "constructor"
    },
    {
      "anonymous": false,
      "inputs": [
        {
          "indexed": true,
          "internalType": "address",
          "name": "owner",
          "type": "address"
        },
        {
          "indexed": true,
          "internalType": "address",
          "name": "approved",
          "type": "address"
        },
        {
          "indexed": true,
          "internalType": "uint256",
          "name": "tokenId",
          "type": "uint256"
        }
      ],
      "name": "Approval",
      "type": "event"
    },
    {
      "anonymous": false,
      "inputs": [
        {
          "indexed": true,
          "internalType": "address",
          "name": "owner",
          "type": "address"
        },
        {
          "indexed": true,
          "internalType": "address",
          "name": "operator",
          "type": "address"
        },
        {
          "indexed": false,
          "internalType": "bool",
          "name": "approved",
          "type": "bool"
        }
      ],
      "name": "ApprovalForAll",
      "type": "event"
    },
    {
      "anonymous": false,
      "inputs": [
        {
          "indexed": false,
          "internalType": "address",
          "name": "sender",
          "type": "address"
        },
        {
          "indexed": false,
          "internalType": "uint256",
          "name": "tokenId",
          "type": "uint256"
        }
      ],
      "name": "NewEpicNFTMinted",
      "type": "event"
    },
    {
      "anonymous": false,
      "inputs": [
        {
          "indexed": true,
          "internalType": "address",
          "name": "from",
          "type": "address"
        },
        {
          "indexed": true,
          "internalType": "address",
          "name": "to",
          "type": "address"
        },
        {
          "indexed": true,
          "internalType": "uint256",
          "name": "tokenId",
          "type": "uint256"
        }
      ],
      "name": "Transfer",
      "type": "event"
    },
    {
      "inputs": [
        {
          "internalType": "address",
          "name": "to",
          "type": "address"
        },
        {
          "internalType": "uint256",
          "name": "tokenId",
          "type": "uint256"
        }
      ],
      "name": "approve",
      "outputs": [],
      "stateMutability": "nonpayable",
      "type": "function"
    },
    {
      "inputs": [
        {
          "internalType": "address",
          "name": "owner",
          "type": "address"
        }
      ],
      "name": "balanceOf",
      "outputs": [
        {
          "internalType": "uint256",
          "name": "",
          "type": "uint256"
        }
      ],
      "stateMutability": "view",
      "type": "function"
    },
    {
      "inputs": [
        {
          "internalType": "uint256",
          "name": "tokenId",
          "type": "uint256"
        }
      ],
      "name": "getApproved",
      "outputs": [
        {
          "internalType": "address",
          "name": "",
          "type": "address"
        }
      ],
      "stateMutability": "view",
      "type": "function"
    },
    {
      "inputs": [],
      "name": "getTotalNFTsMinted",
      "outputs": [
        {
          "internalType": "uint256",
          "name": "",
          "type": "uint256"
        }
      ],
      "stateMutability": "view",
      "type": "function"
    },
    {
      "inputs": [
        {
          "internalType": "address",
          "name": "owner",
          "type": "address"
        },
        {
          "internalType": "address",
          "name": "operator",
          "type": "address"
        }
      ],
      "name": "isApprovedForAll",
      "outputs": [
        {
          "internalType": "bool",
          "name": "",
          "type": "bool"
        }
      ],
      "stateMutability": "view",
      "type": "function"
    },
    {
      "inputs": [],
      "name": "makeAnEpicNFT",
      "outputs": [],
      "stateMutability": "nonpayable",
      "type": "function"
    },
    {
      "inputs": [],
      "name": "name",
      "outputs": [
        {
          "internalType": "string",
          "name": "",
          "type": "string"
        }
      ],
      "stateMutability": "view",
      "type": "function"
    },
    {
      "inputs": [
        {
          "internalType": "uint256",
          "name": "tokenId",
          "type": "uint256"
        }
      ],
      "name": "ownerOf",
      "outputs": [
        {
          "internalType": "address",
          "name": "",
          "type": "address"
        }
      ],
      "stateMutability": "view",
      "type": "function"
    },
    {
      "inputs": [
        {
          "internalType": "uint256",
          "name": "tokenId",
          "type": "uint256"
        }
      ],
      "name": "pickRandomColor",
      "outputs": [
        {
          "internalType": "string",
          "name": "",
          "type": "string"
        }
      ],
      "stateMutability": "view",
      "type": "function"
    },
    {
      "inputs": [
        {
          "internalType": "uint256",
          "name": "tokenId",
          "type": "uint256"
        }
      ],
      "name": "pickRandomFirstWord",
      "outputs": [
        {
          "internalType": "string",
          "name": "",
          "type": "string"
        }
      ],
      "stateMutability": "view",
      "type": "function"
    },
    {
      "inputs": [
        {
          "internalType": "uint256",
          "name": "tokenId",
          "type": "uint256"
        }
      ],
      "name": "pickRandomSecondWord",
      "outputs": [
        {
          "internalType": "string",
          "name": "",
          "type": "string"
        }
      ],
      "stateMutability": "view",
      "type": "function"
    },
    {
      "inputs": [
        {
          "internalType": "uint256",
          "name": "tokenId",
          "type": "uint256"
        }
      ],
      "name": "pickRandomThirdWord",
      "outputs": [
        {
          "internalType": "string",
          "name": "",
          "type": "string"
        }
      ],
      "stateMutability": "view",
      "type": "function"
    },
    {
      "inputs": [
        {
          "internalType": "address",
          "name": "from",
          "type": "address"
        },
        {
          "internalType": "address",
          "name": "to",
          "type": "address"
        },
        {
          "internalType": "uint256",
          "name": "tokenId",
          "type": "uint256"
        }
      ],
      "name": "safeTransferFrom",
      "outputs": [],
      "stateMutability": "nonpayable",
      "type": "function"
    },
    {
      "inputs": [
        {
          "internalType": "address",
          "name": "from",
          "type": "address"
        },
        {
          "internalType": "address",
          "name": "to",
          "type": "address"
        },
        {
          "internalType": "uint256",
          "name": "tokenId",
          "type": "uint256"
        },
        {
          "internalType": "bytes",
          "name": "_data",
          "type": "bytes"
        }
      ],
      "name": "safeTransferFrom",
      "outputs": [],
      "stateMutability": "nonpayable",
      "type": "function"
    },
    {
      "inputs": [
        {
          "internalType": "address",
          "name": "operator",
          "type": "address"
        },
        {
          "internalType": "bool",
          "name": "approved",
          "type": "bool"
        }
      ],
      "name": "setApprovalForAll",
      "outputs": [],
      "stateMutability": "nonpayable",
      "type": "function"
    },
    {
      "inputs": [
        {
          "internalType": "bytes4",
          "name": "interfaceId",
          "type": "bytes4"
        }
      ],
      "name": "supportsInterface",
      "outputs": [
        {
          "internalType": "bool",
          "name": "",
          "type": "bool"
        }
      ],
      "stateMutability": "view",
      "type": "function"
    },
    {
      "inputs": [],
      "name": "symbol",
      "outputs": [
        {
          "internalType": "string",
          "name": "",
          "type": "string"
        }
      ],
      "stateMutability": "view",
      "type": "function"
    },
    {
      "inputs": [
        {
          "internalType": "uint256",
          "name": "tokenId",
          "type": "uint256"
        }
      ],
      "name": "tokenURI",
      "outputs": [
        {
          "internalType": "string",
          "name": "",
          "type": "string"
        }
      ],
      "stateMutability": "view",
      "type": "function"
    },
    {
      "inputs": [
        {
          "internalType": "address",
          "name": "from",
          "type": "address"
        },
        {
          "internalType": "address",
          "name": "to",
          "type": "address"
        },
        {
          "internalType": "uint256",
          "name": "tokenId",
          "type": "uint256"
        }
      ],
      "name": "transferFrom",
      "outputs": [],
      "stateMutability": "nonpayable",
      "type": "function"
    }
  ],
  "bytecode": "0x608060405260405180610100016040528060d381526020016200461c60d3913960089080519060200190620000369291906200082c565b50604051806080016040528060568152602001620046ef6056913960099080519060200190620000689291906200082c565b506040518060c001604052806040518060400160405280600381526020017f4f4e45000000000000000000000000000000000000000000000000000000000081525081526020016040518060400160405280600381526020017f54574f000000000000000000000000000000000000000000000000000000000081525081526020016040518060400160405280600581526020017f544852454500000000000000000000000000000000000000000000000000000081525081526020016040518060400160405280600481526020017f464f55520000000000000000000000000000000000000000000000000000000081525081526020016040518060400160405280600481526020017f464956450000000000000000000000000000000000000000000000000000000081525081526020016040518060400160405280600381526020017f5349580000000000000000000000000000000000000000000000000000000000815250815250600a906006620001e6929190620008bd565b506040518060c001604052806040518060400160405280600581526020017f4150504c4500000000000000000000000000000000000000000000000000000081525081526020016040518060400160405280600781526020017f42414c414e43450000000000000000000000000000000000000000000000000081525081526020016040518060400160405280600481526020017f434f524e0000000000000000000000000000000000000000000000000000000081525081526020016040518060400160405280600481526020017f444f47450000000000000000000000000000000000000000000000000000000081525081526020016040518060400160405280600381526020017f455446000000000000000000000000000000000000000000000000000000000081525081526020016040518060400160405280600481526020017f4649534800000000000000000000000000000000000000000000000000000000815250815250600b90600662000364929190620008bd565b506040518060c001604052806040518060400160405280600481526020017f48454c500000000000000000000000000000000000000000000000000000000081525081526020016040518060400160405280600681526020017f415353495354000000000000000000000000000000000000000000000000000081525081526020016040518060400160405280600581526020017f5354414e4400000000000000000000000000000000000000000000000000000081525081526020016040518060400160405280600681526020017f49474e4f5245000000000000000000000000000000000000000000000000000081525081526020016040518060400160405280600781526020017f504153534956450000000000000000000000000000000000000000000000000081525081526020016040518060400160405280600681526020017f4143544956450000000000000000000000000000000000000000000000000000815250815250600c906006620004e2929190620008bd565b506040518060c001604052806040518060400160405280600381526020017f726564000000000000000000000000000000000000000000000000000000000081525081526020016040518060400160405280600781526020017f233038433241380000000000000000000000000000000000000000000000000081525081526020016040518060400160405280600581526020017f626c61636b00000000000000000000000000000000000000000000000000000081525081526020016040518060400160405280600681526020017f79656c6c6f77000000000000000000000000000000000000000000000000000081525081526020016040518060400160405280600481526020017f626c75650000000000000000000000000000000000000000000000000000000081525081526020016040518060400160405280600581526020017f677265656e000000000000000000000000000000000000000000000000000000815250815250600d90600662000660929190620008bd565b503480156200066e57600080fd5b506040518060400160405280600981526020017f5371756172654e465400000000000000000000000000000000000000000000008152506040518060400160405280600681526020017f53515541524500000000000000000000000000000000000000000000000000008152508160009080519060200190620006f39291906200082c565b5080600190805190602001906200070c9291906200082c565b5050506200075a6040518060400160405280601e81526020017f54686973206973206d79204e465420636f6e74726163742e20576f61682100008152506200076060201b620014131760201c565b62000ade565b6200080081604051602401620007779190620009f2565b6040516020818303038152906040527f41304fac000000000000000000000000000000000000000000000000000000007bffffffffffffffffffffffffffffffffffffffffffffffffffffffff19166020820180517bffffffffffffffffffffffffffffffffffffffffffffffffffffffff83818316178352505050506200080360201b60201c565b50565b60008151905060006a636f6e736f6c652e6c6f679050602083016000808483855afa5050505050565b8280546200083a9062000a68565b90600052602060002090601f0160209004810192826200085e5760008555620008aa565b82601f106200087957805160ff1916838001178555620008aa565b82800160010185558215620008aa579182015b82811115620008a95782518255916020019190600101906200088c565b5b509050620008b9919062000924565b5090565b82805482825590600052602060002090810192821562000911579160200282015b8281111562000910578251829080519060200190620008ff9291906200082c565b5091602001919060010190620008de565b5b50905062000920919062000943565b5090565b5b808211156200093f57600081600090555060010162000925565b5090565b5b808211156200096757600081816200095d91906200096b565b5060010162000944565b5090565b508054620009799062000a68565b6000825580601f106200098d5750620009ae565b601f016020900490600052602060002090810190620009ad919062000924565b5b50565b6000620009be8262000a16565b620009ca818562000a21565b9350620009dc81856020860162000a32565b620009e78162000acd565b840191505092915050565b6000602082019050818103600083015262000a0e8184620009b1565b905092915050565b600081519050919050565b600082825260208201905092915050565b60005b8381101562000a5257808201518184015260208101905062000a35565b8381111562000a62576000848401525b50505050565b6000600282049050600182168062000a8157607f821691505b6020821081141562000a985762000a9762000a9e565b5b50919050565b7f4e487b7100000000000000000000000000000000000000000000000000000000600052602260045260246000fd5b6000601f19601f8301169050919050565b613b2e8062000aee6000396000f3fe608060405234801561001057600080fd5b50600436106101215760003560e01c806370a08231116100ad578063b88d4fde11610071578063b88d4fde14610340578063c575757a1461035c578063c87b56dd1461038c578063de9d132f146103bc578063e985e9c5146103c657610121565b806370a082311461028857806395d89b41146102b8578063a22cb465146102d6578063b187301f146102f2578063b4c3b8be1461032257610121565b806323b872dd116100f457806323b872dd146101c05780632de38d68146101dc57806342842e0e1461020c578063514dc8c6146102285780636352211e1461025857610121565b806301ffc9a71461012657806306fdde0314610156578063081812fc14610174578063095ea7b3146101a4575b600080fd5b610140600480360381019061013b91906126a6565b6103f6565b60405161014d9190613384565b60405180910390f35b61015e6104d8565b60405161016b919061339f565b60405180910390f35b61018e600480360381019061018991906126f8565b61056a565b60405161019b91906132f4565b60405180910390f35b6101be60048036038101906101b9919061266a565b6105ef565b005b6101da60048036038101906101d59190612564565b610707565b005b6101f660048036038101906101f191906126f8565b610767565b604051610203919061339f565b60405180910390f35b61022660048036038101906102219190612564565b610885565b005b610242600480360381019061023d91906126f8565b6108a5565b60405161024f919061339f565b60405180910390f35b610272600480360381019061026d91906126f8565b6109c3565b60405161027f91906132f4565b60405180910390f35b6102a2600480360381019061029d91906124ff565b610a75565b6040516102af919061361f565b60405180910390f35b6102c0610b2d565b6040516102cd919061339f565b60405180910390f35b6102f060048036038101906102eb919061262e565b610bbf565b005b61030c600480360381019061030791906126f8565b610d40565b604051610319919061339f565b60405180910390f35b61032a610e5e565b604051610337919061361f565b60405180910390f35b61035a600480360381019061035591906125b3565b610e6f565b005b610376600480360381019061037191906126f8565b610ed1565b604051610383919061339f565b60405180910390f35b6103a660048036038101906103a191906126f8565b610fef565b6040516103b3919061339f565b60405180910390f35b6103c4611141565b005b6103e060048036038101906103db9190612528565b61137f565b6040516103ed9190613384565b60405180910390f35b60007f80ac58cd000000000000000000000000000000000000000000000000000000007bffffffffffffffffffffffffffffffffffffffffffffffffffffffff1916827bffffffffffffffffffffffffffffffffffffffffffffffffffffffff191614806104c157507f5b5e139f000000000000000000000000000000000000000000000000000000007bffffffffffffffffffffffffffffffffffffffffffffffffffffffff1916827bffffffffffffffffffffffffffffffffffffffffffffffffffffffff1916145b806104d157506104d0826114ac565b5b9050919050565b6060600080546104e7906138be565b80601f0160208091040260200160405190810160405280929190818152602001828054610513906138be565b80156105605780601f1061053557610100808354040283529160200191610560565b820191906000526020600020905b81548152906001019060200180831161054357829003601f168201915b5050505050905090565b600061057582611516565b6105b4576040517f08c379a00000000000000000000000000000000000000000000000000000000081526004016105ab9061355f565b60405180910390fd5b6004600083815260200190815260200160002060009054906101000a900473ffffffffffffffffffffffffffffffffffffffff169050919050565b60006105fa826109c3565b90508073ffffffffffffffffffffffffffffffffffffffff168373ffffffffffffffffffffffffffffffffffffffff16141561066b576040517f08c379a0000000000000000000000000000000000000000000000000000000008152600401610662906135df565b60405180910390fd5b8073ffffffffffffffffffffffffffffffffffffffff1661068a611582565b73ffffffffffffffffffffffffffffffffffffffff1614806106b957506106b8816106b3611582565b61137f565b5b6106f8576040517f08c379a00000000000000000000000000000000000000000000000000000000081526004016106ef9061349f565b60405180910390fd5b610702838361158a565b505050565b610718610712611582565b82611643565b610757576040517f08c379a000000000000000000000000000000000000000000000000000000000815260040161074e906135ff565b60405180910390fd5b610762838383611721565b505050565b6060600061079b6107778461197d565b604051602001610787919061328e565b604051602081830303815290604052611b2a565b9050600a80549050816107ae9190613939565b9050600a81815481106107ea577f4e487b7100000000000000000000000000000000000000000000000000000000600052603260045260246000fd5b9060005260206000200180546107ff906138be565b80601f016020809104026020016040519081016040528092919081815260200182805461082b906138be565b80156108785780601f1061084d57610100808354040283529160200191610878565b820191906000526020600020905b81548152906001019060200180831161085b57829003601f168201915b5050505050915050919050565b6108a083838360405180602001604052806000815250610e6f565b505050565b606060006108d96108b58461197d565b6040516020016108c591906132d2565b604051602081830303815290604052611b2a565b9050600d80549050816108ec9190613939565b9050600d8181548110610928577f4e487b7100000000000000000000000000000000000000000000000000000000600052603260045260246000fd5b90600052602060002001805461093d906138be565b80601f0160208091040260200160405190810160405280929190818152602001828054610969906138be565b80156109b65780601f1061098b576101008083540402835291602001916109b6565b820191906000526020600020905b81548152906001019060200180831161099957829003601f168201915b5050505050915050919050565b6000806002600084815260200190815260200160002060009054906101000a900473ffffffffffffffffffffffffffffffffffffffff169050600073ffffffffffffffffffffffffffffffffffffffff168173ffffffffffffffffffffffffffffffffffffffff161415610a6c576040517f08c379a0000000000000000000000000000000000000000000000000000000008152600401610a63906134df565b60405180910390fd5b80915050919050565b60008073ffffffffffffffffffffffffffffffffffffffff168273ffffffffffffffffffffffffffffffffffffffff161415610ae6576040517f08c379a0000000000000000000000000000000000000000000000000000000008152600401610add906134bf565b60405180910390fd5b600360008373ffffffffffffffffffffffffffffffffffffffff1673ffffffffffffffffffffffffffffffffffffffff168152602001908152602001600020549050919050565b606060018054610b3c906138be565b80601f0160208091040260200160405190810160405280929190818152602001828054610b68906138be565b8015610bb55780601f10610b8a57610100808354040283529160200191610bb5565b820191906000526020600020905b815481529060010190602001808311610b9857829003601f168201915b5050505050905090565b610bc7611582565b73ffffffffffffffffffffffffffffffffffffffff168273ffffffffffffffffffffffffffffffffffffffff161415610c35576040517f08c379a0000000000000000000000000000000000000000000000000000000008152600401610c2c9061345f565b60405180910390fd5b8060056000610c42611582565b73ffffffffffffffffffffffffffffffffffffffff1673ffffffffffffffffffffffffffffffffffffffff16815260200190815260200160002060008473ffffffffffffffffffffffffffffffffffffffff1673ffffffffffffffffffffffffffffffffffffffff16815260200190815260200160002060006101000a81548160ff0219169083151502179055508173ffffffffffffffffffffffffffffffffffffffff16610cef611582565b73ffffffffffffffffffffffffffffffffffffffff167f17307eab39ab6107e8899845ad3d59bd9653f200f220920489ca2b5937696c3183604051610d349190613384565b60405180910390a35050565b60606000610d74610d508461197d565b604051602001610d609190613227565b604051602081830303815290604052611b2a565b9050600b8054905081610d879190613939565b9050600b8181548110610dc3577f4e487b7100000000000000000000000000000000000000000000000000000000600052603260045260246000fd5b906000526020600020018054610dd8906138be565b80601f0160208091040260200160405190810160405280929190818152602001828054610e04906138be565b8015610e515780601f10610e2657610100808354040283529160200191610e51565b820191906000526020600020905b815481529060010190602001808311610e3457829003601f168201915b5050505050915050919050565b6000610e6a6007611b5d565b905090565b610e80610e7a611582565b83611643565b610ebf576040517f08c379a0000000000000000000000000000000000000000000000000000000008152600401610eb6906135ff565b60405180910390fd5b610ecb84848484611b6b565b50505050565b60606000610f05610ee18461197d565b604051602001610ef19190613205565b604051602081830303815290604052611b2a565b9050600c8054905081610f189190613939565b9050600c8181548110610f54577f4e487b7100000000000000000000000000000000000000000000000000000000600052603260045260246000fd5b906000526020600020018054610f69906138be565b80601f0160208091040260200160405190810160405280929190818152602001828054610f95906138be565b8015610fe25780601f10610fb757610100808354040283529160200191610fe2565b820191906000526020600020905b815481529060010190602001808311610fc557829003601f168201915b5050505050915050919050565b6060610ffa82611516565b611039576040517f08c379a00000000000000000000000000000000000000000000000000000000081526004016110309061353f565b60405180910390fd5b6000600660008481526020019081526020016000208054611059906138be565b80601f0160208091040260200160405190810160405280929190818152602001828054611085906138be565b80156110d25780601f106110a7576101008083540402835291602001916110d2565b820191906000526020600020905b8154815290600101906020018083116110b557829003601f168201915b5050505050905060006110e3611bc7565b90506000815114156110f957819250505061113c565b60008251111561112e578082604051602001611116929190613167565b6040516020818303038152906040529250505061113c565b61113784611bde565b925050505b919050565b600061114d6007611b5d565b90506032811115611193576040517f08c379a000000000000000000000000000000000000000000000000000000000815260040161118a9061357f565b60405180910390fd5b600061119e82610767565b905060006111ab83610d40565b905060006111b884610ed1565b905060008383836040516020016111d19392919061318b565b604051602081830303815290604052905060006111ed866108a5565b9050600060088260098560405160200161120a94939291906131bc565b6040516020818303038152906040529050600061124f8461122a84611c85565b60405160200161123b929190613249565b604051602081830303815290604052611c85565b905060008160405160200161126491906132b0565b60405160208183030381529060405290506112b36040518060400160405280601581526020017f0a2d2d2d2d2d2d2d2d2d2d2d2d2d2d2d2d2d2d2d2d0000000000000000000000815250611413565b6112bc81611413565b6112fa6040518060400160405280601581526020017f2d2d2d2d2d2d2d2d2d2d2d2d2d2d2d2d2d2d2d2d0a0000000000000000000000815250611413565b611304338a611e43565b61130e8982611e61565b6113186007611ed5565b61133b604051806060016040528060258152602001613a94602591398a33611eeb565b7febb98688741ffa4c7589bf325de30cf7becb63de567842e1ccdb6cb949fdc82c338a60405161136c92919061335b565b60405180910390a1505050505050505050565b6000600560008473ffffffffffffffffffffffffffffffffffffffff1673ffffffffffffffffffffffffffffffffffffffff16815260200190815260200160002060008373ffffffffffffffffffffffffffffffffffffffff1673ffffffffffffffffffffffffffffffffffffffff16815260200190815260200160002060009054906101000a900460ff16905092915050565b6114a981604051602401611427919061339f565b6040516020818303038152906040527f41304fac000000000000000000000000000000000000000000000000000000007bffffffffffffffffffffffffffffffffffffffffffffffffffffffff19166020820180517bffffffffffffffffffffffffffffffffffffffffffffffffffffffff8381831617835250505050611f8a565b50565b60007f01ffc9a7000000000000000000000000000000000000000000000000000000007bffffffffffffffffffffffffffffffffffffffffffffffffffffffff1916827bffffffffffffffffffffffffffffffffffffffffffffffffffffffff1916149050919050565b60008073ffffffffffffffffffffffffffffffffffffffff166002600084815260200190815260200160002060009054906101000a900473ffffffffffffffffffffffffffffffffffffffff1673ffffffffffffffffffffffffffffffffffffffff1614159050919050565b600033905090565b816004600083815260200190815260200160002060006101000a81548173ffffffffffffffffffffffffffffffffffffffff021916908373ffffffffffffffffffffffffffffffffffffffff160217905550808273ffffffffffffffffffffffffffffffffffffffff166115fd836109c3565b73ffffffffffffffffffffffffffffffffffffffff167f8c5be1e5ebec7d5bd14f71427d1e84f3dd0314c0f7b2291e5b200ac8c7c3b92560405160405180910390a45050565b600061164e82611516565b61168d576040517f08c379a00000000000000000000000000000000000000000000000000000000081526004016116849061347f565b60405180910390fd5b6000611698836109c3565b90508073ffffffffffffffffffffffffffffffffffffffff168473ffffffffffffffffffffffffffffffffffffffff16148061170757508373ffffffffffffffffffffffffffffffffffffffff166116ef8461056a565b73ffffffffffffffffffffffffffffffffffffffff16145b806117185750611717818561137f565b5b91505092915050565b8273ffffffffffffffffffffffffffffffffffffffff16611741826109c3565b73ffffffffffffffffffffffffffffffffffffffff1614611797576040517f08c379a000000000000000000000000000000000000000000000000000000000815260040161178e9061359f565b60405180910390fd5b600073ffffffffffffffffffffffffffffffffffffffff168273ffffffffffffffffffffffffffffffffffffffff161415611807576040517f08c379a00000000000000000000000000000000000000000000000000000000081526004016117fe9061343f565b60405180910390fd5b611812838383611fb3565b61181d60008261158a565b6001600360008573ffffffffffffffffffffffffffffffffffffffff1673ffffffffffffffffffffffffffffffffffffffff168152602001908152602001600020600082825461186d91906137d4565b925050819055506001600360008473ffffffffffffffffffffffffffffffffffffffff1673ffffffffffffffffffffffffffffffffffffffff16815260200190815260200160002060008282546118c491906136f3565b92505081905550816002600083815260200190815260200160002060006101000a81548173ffffffffffffffffffffffffffffffffffffffff021916908373ffffffffffffffffffffffffffffffffffffffff160217905550808273ffffffffffffffffffffffffffffffffffffffff168473ffffffffffffffffffffffffffffffffffffffff167fddf252ad1be2c89b69c2b068fc378daa952ba7f163c4a11628f55a4df523b3ef60405160405180910390a4505050565b606060008214156119c5576040518060400160405280600181526020017f30000000000000000000000000000000000000000000000000000000000000008152509050611b25565b600082905060005b600082146119f75780806119e0906138f0565b915050600a826119f09190613749565b91506119cd565b60008167ffffffffffffffff811115611a39577f4e487b7100000000000000000000000000000000000000000000000000000000600052604160045260246000fd5b6040519080825280601f01601f191660200182016040528015611a6b5781602001600182028036833780820191505090505b5090505b60008514611b1e57600182611a8491906137d4565b9150600a85611a939190613939565b6030611a9f91906136f3565b60f81b818381518110611adb577f4e487b7100000000000000000000000000000000000000000000000000000000600052603260045260246000fd5b60200101907effffffffffffffffffffffffffffffffffffffffffffffffffffffffffffff1916908160001a905350600a85611b179190613749565b9450611a6f565b8093505050505b919050565b600081604051602001611b3d9190613150565b6040516020818303038152906040528051906020012060001c9050919050565b600081600001549050919050565b611b76848484611721565b611b8284848484611fb8565b611bc1576040517f08c379a0000000000000000000000000000000000000000000000000000000008152600401611bb8906133ff565b60405180910390fd5b50505050565b606060405180602001604052806000815250905090565b6060611be982611516565b611c28576040517f08c379a0000000000000000000000000000000000000000000000000000000008152600401611c1f906135bf565b60405180910390fd5b6000611c32611bc7565b90506000815111611c525760405180602001604052806000815250611c7d565b80611c5c8461197d565b604051602001611c6d929190613167565b6040516020818303038152906040525b915050919050565b60606000825190506000811415611cae5760405180602001604052806000815250915050611e3e565b60006003600283611cbf91906136f3565b611cc99190613749565b6004611cd5919061377a565b90506000602082611ce691906136f3565b67ffffffffffffffff811115611d25577f4e487b7100000000000000000000000000000000000000000000000000000000600052604160045260246000fd5b6040519080825280601f01601f191660200182016040528015611d575781602001600182028036833780820191505090505b5090506000604051806060016040528060408152602001613ab9604091399050600181016020830160005b86811015611dfb5760038101905062ffffff818a015116603f8160121c168401518060081b905060ff603f83600c1c1686015116810190508060081b905060ff603f8360061c1686015116810190508060081b905060ff603f831686015116810190508060e01b90508084526004840193505050611d82565b506003860660018114611e155760028114611e2557611e30565b613d3d60f01b6002830352611e30565b603d60f81b60018303525b508484525050819450505050505b919050565b611e5d82826040518060200160405280600081525061214f565b5050565b611e6a82611516565b611ea9576040517f08c379a0000000000000000000000000000000000000000000000000000000008152600401611ea0906134ff565b60405180910390fd5b80600660008481526020019081526020016000209080519060200190611ed092919061238b565b505050565b6001816000016000828254019250508190555050565b611f85838383604051602401611f03939291906133c1565b6040516020818303038152906040527fe3849f79000000000000000000000000000000000000000000000000000000007bffffffffffffffffffffffffffffffffffffffffffffffffffffffff19166020820180517bffffffffffffffffffffffffffffffffffffffffffffffffffffffff8381831617835250505050611f8a565b505050565b60008151905060006a636f6e736f6c652e6c6f679050602083016000808483855afa5050505050565b505050565b6000611fd98473ffffffffffffffffffffffffffffffffffffffff166121aa565b15612142578373ffffffffffffffffffffffffffffffffffffffff1663150b7a02612002611582565b8786866040518563ffffffff1660e01b8152600401612024949392919061330f565b602060405180830381600087803b15801561203e57600080fd5b505af192505050801561206f57506040513d601f19601f8201168201806040525081019061206c91906126cf565b60015b6120f2573d806000811461209f576040519150601f19603f3d011682016040523d82523d6000602084013e6120a4565b606091505b506000815114156120ea576040517f08c379a00000000000000000000000000000000000000000000000000000000081526004016120e1906133ff565b60405180910390fd5b805181602001fd5b63150b7a0260e01b7bffffffffffffffffffffffffffffffffffffffffffffffffffffffff1916817bffffffffffffffffffffffffffffffffffffffffffffffffffffffff191614915050612147565b600190505b949350505050565b61215983836121bd565b6121666000848484611fb8565b6121a5576040517f08c379a000000000000000000000000000000000000000000000000000000000815260040161219c906133ff565b60405180910390fd5b505050565b600080823b905060008111915050919050565b600073ffffffffffffffffffffffffffffffffffffffff168273ffffffffffffffffffffffffffffffffffffffff16141561222d576040517f08c379a00000000000000000000000000000000000000000000000000000000081526004016122249061351f565b60405180910390fd5b61223681611516565b15612276576040517f08c379a000000000000000000000000000000000000000000000000000000000815260040161226d9061341f565b60405180910390fd5b61228260008383611fb3565b6001600360008473ffffffffffffffffffffffffffffffffffffffff1673ffffffffffffffffffffffffffffffffffffffff16815260200190815260200160002060008282546122d291906136f3565b92505081905550816002600083815260200190815260200160002060006101000a81548173ffffffffffffffffffffffffffffffffffffffff021916908373ffffffffffffffffffffffffffffffffffffffff160217905550808273ffffffffffffffffffffffffffffffffffffffff16600073ffffffffffffffffffffffffffffffffffffffff167fddf252ad1be2c89b69c2b068fc378daa952ba7f163c4a11628f55a4df523b3ef60405160405180910390a45050565b828054612397906138be565b90600052602060002090601f0160209004810192826123b95760008555612400565b82601f106123d257805160ff1916838001178555612400565b82800160010185558215612400579182015b828111156123ff5782518255916020019190600101906123e4565b5b50905061240d9190612411565b5090565b5b8082111561242a576000816000905550600101612412565b5090565b600061244161243c8461366b565b61363a565b90508281526020810184848401111561245957600080fd5b61246484828561387c565b509392505050565b60008135905061247b81613a37565b92915050565b60008135905061249081613a4e565b92915050565b6000813590506124a581613a65565b92915050565b6000815190506124ba81613a65565b92915050565b600082601f8301126124d157600080fd5b81356124e184826020860161242e565b91505092915050565b6000813590506124f981613a7c565b92915050565b60006020828403121561251157600080fd5b600061251f8482850161246c565b91505092915050565b6000806040838503121561253b57600080fd5b60006125498582860161246c565b925050602061255a8582860161246c565b9150509250929050565b60008060006060848603121561257957600080fd5b60006125878682870161246c565b93505060206125988682870161246c565b92505060406125a9868287016124ea565b9150509250925092565b600080600080608085870312156125c957600080fd5b60006125d78782880161246c565b94505060206125e88782880161246c565b93505060406125f9878288016124ea565b925050606085013567ffffffffffffffff81111561261657600080fd5b612622878288016124c0565b91505092959194509250565b6000806040838503121561264157600080fd5b600061264f8582860161246c565b925050602061266085828601612481565b9150509250929050565b6000806040838503121561267d57600080fd5b600061268b8582860161246c565b925050602061269c858286016124ea565b9150509250929050565b6000602082840312156126b857600080fd5b60006126c684828501612496565b91505092915050565b6000602082840312156126e157600080fd5b60006126ef848285016124ab565b91505092915050565b60006020828403121561270a57600080fd5b6000612718848285016124ea565b91505092915050565b61272a81613808565b82525050565b6127398161381a565b82525050565b600061274a826136b0565b61275481856136c6565b935061276481856020860161388b565b61276d81613a26565b840191505092915050565b6000612783826136bb565b61278d81856136d7565b935061279d81856020860161388b565b6127a681613a26565b840191505092915050565b60006127bc826136bb565b6127c681856136e8565b93506127d681856020860161388b565b80840191505092915050565b600081546127ef816138be565b6127f981866136e8565b94506001821660008114612814576001811461282557612858565b60ff19831686528186019350612858565b61282e8561369b565b60005b8381101561285057815481890152600182019150602081019050612831565b838801955050505b50505092915050565b600061286e6032836136d7565b91507f4552433732313a207472616e7366657220746f206e6f6e20455243373231526560008301527f63656976657220696d706c656d656e74657200000000000000000000000000006020830152604082019050919050565b60006128d4601c836136d7565b91507f4552433732313a20746f6b656e20616c7265616479206d696e746564000000006000830152602082019050919050565b6000612914600a836136e8565b91507f54484952445f574f5244000000000000000000000000000000000000000000006000830152600a82019050919050565b60006129546024836136d7565b91507f4552433732313a207472616e7366657220746f20746865207a65726f2061646460008301527f72657373000000000000000000000000000000000000000000000000000000006020830152604082019050919050565b60006129ba6019836136d7565b91507f4552433732313a20617070726f766520746f2063616c6c6572000000000000006000830152602082019050919050565b60006129fa6063836136e8565b91507f222c20226465736372697074696f6e223a20224120686967686c79206163636c60008301527f61696d656420636f6c6c656374696f6e206f6620737175617265732e222c202260208301527f696d616765223a2022646174613a696d6167652f7376672b786d6c3b6261736560408301527f36342c00000000000000000000000000000000000000000000000000000000006060830152606382019050919050565b6000612aac600b836136e8565b91507f5345434f4e445f574f52440000000000000000000000000000000000000000006000830152600b82019050919050565b6000612aec602c836136d7565b91507f4552433732313a206f70657261746f7220717565727920666f72206e6f6e657860008301527f697374656e7420746f6b656e00000000000000000000000000000000000000006020830152604082019050919050565b6000612b52600d836136e8565b91507f3c2f746578743e3c2f7376673e000000000000000000000000000000000000006000830152600d82019050919050565b6000612b926038836136d7565b91507f4552433732313a20617070726f76652063616c6c6572206973206e6f74206f7760008301527f6e6572206e6f7220617070726f76656420666f7220616c6c00000000000000006020830152604082019050919050565b6000612bf8602a836136d7565b91507f4552433732313a2062616c616e636520717565727920666f7220746865207a6560008301527f726f2061646472657373000000000000000000000000000000000000000000006020830152604082019050919050565b6000612c5e6029836136d7565b91507f4552433732313a206f776e657220717565727920666f72206e6f6e657869737460008301527f656e7420746f6b656e00000000000000000000000000000000000000000000006020830152604082019050919050565b6000612cc4602e836136d7565b91507f45524337323155524953746f726167653a2055524920736574206f66206e6f6e60008301527f6578697374656e7420746f6b656e0000000000000000000000000000000000006020830152604082019050919050565b6000612d2a6002836136e8565b91507f227d0000000000000000000000000000000000000000000000000000000000006000830152600282019050919050565b6000612d6a6020836136d7565b91507f4552433732313a206d696e7420746f20746865207a65726f20616464726573736000830152602082019050919050565b6000612daa6031836136d7565b91507f45524337323155524953746f726167653a2055524920717565727920666f722060008301527f6e6f6e6578697374656e7420746f6b656e0000000000000000000000000000006020830152604082019050919050565b6000612e10602c836136d7565b91507f4552433732313a20617070726f76656420717565727920666f72206e6f6e657860008301527f697374656e7420746f6b656e00000000000000000000000000000000000000006020830152604082019050919050565b6000612e76600f836136d7565b91507f416c6c204e465473206d696e74656400000000000000000000000000000000006000830152602082019050919050565b6000612eb66029836136d7565b91507f4552433732313a207472616e73666572206f6620746f6b656e2074686174206960008301527f73206e6f74206f776e00000000000000000000000000000000000000000000006020830152604082019050919050565b6000612f1c602f836136d7565b91507f4552433732314d657461646174613a2055524920717565727920666f72206e6f60008301527f6e6578697374656e7420746f6b656e00000000000000000000000000000000006020830152604082019050919050565b6000612f82600a836136e8565b91507f7b226e616d65223a2022000000000000000000000000000000000000000000006000830152600a82019050919050565b6000612fc26021836136d7565b91507f4552433732313a20617070726f76616c20746f2063757272656e74206f776e6560008301527f72000000000000000000000000000000000000000000000000000000000000006020830152604082019050919050565b6000613028600a836136e8565b91507f46495253545f574f5244000000000000000000000000000000000000000000006000830152600a82019050919050565b6000613068601d836136e8565b91507f646174613a6170706c69636174696f6e2f6a736f6e3b6261736536342c0000006000830152601d82019050919050565b60006130a86031836136d7565b91507f4552433732313a207472616e736665722063616c6c6572206973206e6f74206f60008301527f776e6572206e6f7220617070726f7665640000000000000000000000000000006020830152604082019050919050565b600061310e6005836136e8565b91507f434f4c4f520000000000000000000000000000000000000000000000000000006000830152600582019050919050565b61314a81613872565b82525050565b600061315c82846127b1565b915081905092915050565b600061317382856127b1565b915061317f82846127b1565b91508190509392505050565b600061319782866127b1565b91506131a382856127b1565b91506131af82846127b1565b9150819050949350505050565b60006131c882876127e2565b91506131d482866127b1565b91506131e082856127e2565b91506131ec82846127b1565b91506131f782612b45565b915081905095945050505050565b600061321082612907565b915061321c82846127b1565b915081905092915050565b600061323282612a9f565b915061323e82846127b1565b915081905092915050565b600061325482612f75565b915061326082856127b1565b915061326b826129ed565b915061327782846127b1565b915061328282612d1d565b91508190509392505050565b60006132998261301b565b91506132a582846127b1565b915081905092915050565b60006132bb8261305b565b91506132c782846127b1565b915081905092915050565b60006132dd82613101565b91506132e982846127b1565b915081905092915050565b60006020820190506133096000830184612721565b92915050565b60006080820190506133246000830187612721565b6133316020830186612721565b61333e6040830185613141565b8181036060830152613350818461273f565b905095945050505050565b60006040820190506133706000830185612721565b61337d6020830184613141565b9392505050565b60006020820190506133996000830184612730565b92915050565b600060208201905081810360008301526133b98184612778565b905092915050565b600060608201905081810360008301526133db8186612778565b90506133ea6020830185613141565b6133f76040830184612721565b949350505050565b6000602082019050818103600083015261341881612861565b9050919050565b60006020820190508181036000830152613438816128c7565b9050919050565b6000602082019050818103600083015261345881612947565b9050919050565b60006020820190508181036000830152613478816129ad565b9050919050565b6000602082019050818103600083015261349881612adf565b9050919050565b600060208201905081810360008301526134b881612b85565b9050919050565b600060208201905081810360008301526134d881612beb565b9050919050565b600060208201905081810360008301526134f881612c51565b9050919050565b6000602082019050818103600083015261351881612cb7565b9050919050565b6000602082019050818103600083015261353881612d5d565b9050919050565b6000602082019050818103600083015261355881612d9d565b9050919050565b6000602082019050818103600083015261357881612e03565b9050919050565b6000602082019050818103600083015261359881612e69565b9050919050565b600060208201905081810360008301526135b881612ea9565b9050919050565b600060208201905081810360008301526135d881612f0f565b9050919050565b600060208201905081810360008301526135f881612fb5565b9050919050565b600060208201905081810360008301526136188161309b565b9050919050565b60006020820190506136346000830184613141565b92915050565b6000604051905081810181811067ffffffffffffffff82111715613661576136606139f7565b5b8060405250919050565b600067ffffffffffffffff821115613686576136856139f7565b5b601f19601f8301169050602081019050919050565b60008190508160005260206000209050919050565b600081519050919050565b600081519050919050565b600082825260208201905092915050565b600082825260208201905092915050565b600081905092915050565b60006136fe82613872565b915061370983613872565b9250827fffffffffffffffffffffffffffffffffffffffffffffffffffffffffffffffff0382111561373e5761373d61396a565b5b828201905092915050565b600061375482613872565b915061375f83613872565b92508261376f5761376e613999565b5b828204905092915050565b600061378582613872565b915061379083613872565b9250817fffffffffffffffffffffffffffffffffffffffffffffffffffffffffffffffff04831182151516156137c9576137c861396a565b5b828202905092915050565b60006137df82613872565b91506137ea83613872565b9250828210156137fd576137fc61396a565b5b828203905092915050565b600061381382613852565b9050919050565b60008115159050919050565b60007fffffffff0000000000000000000000000000000000000000000000000000000082169050919050565b600073ffffffffffffffffffffffffffffffffffffffff82169050919050565b6000819050919050565b82818337600083830152505050565b60005b838110156138a957808201518184015260208101905061388e565b838111156138b8576000848401525b50505050565b600060028204905060018216806138d657607f821691505b602082108114156138ea576138e96139c8565b5b50919050565b60006138fb82613872565b91507fffffffffffffffffffffffffffffffffffffffffffffffffffffffffffffffff82141561392e5761392d61396a565b5b600182019050919050565b600061394482613872565b915061394f83613872565b92508261395f5761395e613999565b5b828206905092915050565b7f4e487b7100000000000000000000000000000000000000000000000000000000600052601160045260246000fd5b7f4e487b7100000000000000000000000000000000000000000000000000000000600052601260045260246000fd5b7f4e487b7100000000000000000000000000000000000000000000000000000000600052602260045260246000fd5b7f4e487b7100000000000000000000000000000000000000000000000000000000600052604160045260246000fd5b6000601f19601f8301169050919050565b613a4081613808565b8114613a4b57600080fd5b50565b613a578161381a565b8114613a6257600080fd5b50565b613a6e81613826565b8114613a7957600080fd5b50565b613a8581613872565b8114613a9057600080fd5b5056fe416e204e465420772f20494420257320686173206265656e206d696e74656420746f2025734142434445464748494a4b4c4d4e4f505152535455565758595a6162636465666768696a6b6c6d6e6f707172737475767778797a303132333435363738392b2fa264697066735822122047b1c617c53ac29c51fe2cc2953e688aa29ad5180704b708c4a251d5a93e2a4264736f6c634300080000333c73766720786d6c6e733d27687474703a2f2f7777772e77332e6f72672f323030302f73766727207072657365727665417370656374526174696f3d27784d696e594d696e206d656574272076696577426f783d273020302033353020333530273e3c7374796c653e2e62617365207b2066696c6c3a2077686974653b20666f6e742d66616d696c793a2073657269663b20666f6e742d73697a653a20323470783b207d3c2f7374796c653e3c726563742077696474683d273130302527206865696768743d2731303025272066696c6c3d27272f3e3c7465787420783d273530252720793d273530252720636c6173733d27626173652720646f6d696e616e742d626173656c696e653d276d6964646c652720746578742d616e63686f723d276d6964646c65273e",
  "linkReferences": {},
  "deployedLinkReferences": {}
}